:020000040808EA
:10000000000008085C5C0808000006000A00050102
:0800100004024E040000000090
:100018006452080809480A4908B5884205D0094ABF
:10002800824202D0121A04F057FC0748074A0021FE
:10003800121A04F05CFC064808BD00BF000400204A
:10004800E45A08085005002050050020A00C0020A4
:10005800A00C002070B503F06DF9074B074C1E4645
:10006800E41AA4080025A54204D056F8253098477C
:100078000135F8E770BD00BFA45A0808E05A08081F
:1000880000F038BE08B500F03BFCBDE8084003F0BE
:1000980013B901F06DBD01F073BD0078B0FA80F0BE
:1000A800400970470123037070470000014B01228B
:1000B8001A7070470406002008B5044902F079FE5A
:1000C80018B1034B03221A70012008BDF456080822
:1000D8008205002001F0F0BA01F0F6BA37B50546FE
:1000E8009DF8184023438DF800303C2302F036F881
:1000F800284603B030BD000030B58FB0104904A8C1
:1001080001F0E2FD04A801F03AFE044604A801F05B
:1001180095FE054604A801F079FE03F0E7FCCDE959
:100128000201284603F0E2FCCDE90001054B064A2E
:1001380053F824304021054801F042FD0FB030BD8E
:100148004C06002078040020B85208089C050020BE
:1001580007B5154801F092F858B1134801F0B3F803
:1001680003F0C4FC114ACDE900011021104801F048
:1001780027FD104B00221146586801F0C1FC08B158
:10018800FFF7BAFF0C4802F099F904F039FA0B4A64
:100198000346106010210A4A0A4801F011FD0120A7
:1001A80003B05DF804FB00BF18060020D152080810
:1001B800540500204C0600207805002094050020F6
:1001C800E1520808060600202DE9D0431A4800230A
:1001D8001A461946406801F09BFC40F2E73601F0E8
:1001E8002FFC4FF496740027002001F085FA804612
:1001F8004FF00009002001F07FFAB0EB080061EB36
:1002080009018F4208BF864205D301F029FC10B9C5
:1002180001F00EFCEEE701F023FC18B1BDE8D04375
:1002280001F01EBC01F030FA044B186001F000FC2C
:10023800013CF3D0D8E700BF4C060020640B002037
:1002480008B501F00DFC80F00100C0B208BD000047
:10025800F8B501F0FDFB002001F04EFA43F69726B1
:10026800044600250027002001F046FA001B61EB38
:1002780005018F4208BF864205D3FFF7E1FF10B999
:1002880001F0D6FBEFE7FFF7DBFF064800231A462D
:100298001946406801F044FC4FF4FA6001F0A8FCEC
:1002A8000120F8BD4C0600201FB51F4802F086FA51
:1002B8001D4802F030FC1D4B1C781D4BBCB11422AC
:1002C80041F2E82118481A6002F0FAFA4FF4617115
:1002D800154802F07FFB002211460292019200921B
:1002E8000123114802F0BEFB41F2700116E01E2204
:1002F80041F270010C481A6002F0E2FA40F2DC5157
:10030800094802F067FB01232146029401940094F6
:100318001A46054802F0A6FB41F21001024804B053
:10032800BDE8104002F0D1BB83050020050600207F
:100338006405002008B501F0A7F9044B1B68C01A32
:10034800B0F57A7F34BF0020012008BD8805002061
:1003580008B5FFF7EFFF18B1BDE80840FFF7EABF9F
:1003680001F066FBF5E7000037B501F071FB01F01D
:100378008BF943F69725044601F072FB40B101F072
:1003880083F9001BA84203D8642001F031FCF3E78D
:100398000021094B47F23052084601F03DF94FF46D
:1003A8007A7001F025FC054B0A221B68012168467A
:1003B80002F032FD03B030BDE7520808EC0500201A
:1003C80008B50121062003F016F80021062003F0E5
:1003D80012F8024B00221A7008BD00BF0406002064
:1003E80038B5046805467CB16368013B63605BB956
:1003F800236820469B689847A368013BA3601BB904
:1004080023682046DB689847284638BD00B5264B48
:10041800D1B01B680C93254B1B680B93244B1B68AE
:100428000A93244B186803F061FBCDE90801224BBD
:10043800186803F05BFBCDE90601204B186803F050
:1004480055FBCDE904011E4B186803F04FFBCDE9BD
:1004580002011C4B186803F049FB1B4ACDE9000157
:100468004FF4807110A801F0ABFB184B002218491B
:100478001B780EA88DF8002010AAFFF72FFE0FA8F2
:10048800FFF7AEFF02F092FD124B187002F0A2FDCA
:10049800114B01221870114B1A7001F0F5F8104B2E
:1004A800186051B05DF804FB90050020DC050020C1
:1004B80094050020700500208C050020E40500202C
:1004C80098050020FC050020F45208086D0500205E
:1004D80086530808E00500208405002074040020E5
:1004E80068050020F0B585B0084602AF0E4604F056
:1004F8005CFA00F1080323F007036D46ADEB030D2A
:1005080002AC421C3146204604F06CFA9DF80860A3
:100518004EB901F0A5FA00283BD0204B204A1B78A1
:100528008DF800602EE0204604F0CCF8C838012889
:100538001FD801F095FA60B1184B00221B78384695
:100548008DF800201749184AFFF7C8FD381DFFF736
:1005580047FF01F099F8154B186002F079FF02F097
:100568001EFDC1B20520FFF7B7FD114B00221A701E
:100578000FE001F075FA60B1084B00221B788DF886
:100588000020224638460B49FFF7A8FD381DFFF723
:1005980027FFAD460C37BD46F0BD00BF6D050020F6
:1005A80099530808C0530808AE5308088805002066
:1005B80074040020A153080830B5244985B00546C5
:1005C80002F0F7FB0446D0B1214B01241C7002F065
:1005D8003FFF0420FFF77EFD1E4D40F00400287009
:1005E80002F036FF29780420FFF776FDFFF75CFE5E
:1005F800194B00221B788DF80020184A1CE0184976
:10060800284602F0D6FBF8B1114B124D1C7002F0CF
:100618001FFF0420FFF75EFD20F00400287002F0A1
:1006280017FF29780420FFF757FDFFF73DFE0A4B17
:100638000C4A1B788DF800400B4902A8FFF74EFDC5
:1006480003A8FFF7CDFE012005B030BDF456080819
:1006580005060020160600206D050020C653080870
:10066800DE550808DD530808F353080830B5224959
:1006780085B0054602F09DFB0446C0B11F4B01241E
:100688001C7002F0E5FE0420FFF724FD1C4D40F02D
:100698000800287002F0DCFE29780420FFF71CFD12
:1006A800184B00221B788DF80020174A1AE01749CA
:1006B800284602F07EFBE8B1104B114D1C7002F089
:1006C800C7FE0420FFF706FD20F00800287002F09E
:1006D800BFFE29780420FFF7FFFC0A4B0C4A1B7861
:1006E8008DF800400B4902A8FFF7F8FC03A8FFF7B4
:1006F80077FE012005B030BDF4560808F705002044
:10070800160600206D050020F8530808DE55080875
:1007180009540808F353080870B5CCB00A2205A993
:10072800006804F0F9F9C5B205F10C03DBB2182B27
:100738003DD844B2204603F049FD02F0D1FB02F057
:1007480087FE29460320FFF7C7FC02F028FC194E54
:10075800194D23463060194A4FF4807100240CA8C3
:1007680001F02EFA2B780CAA154908A88DF800403C
:10077800FFF7B4FC09A8FFF733FE4FF47A7001F0D5
:1007880037FA316808A802F0C7FB089B0C490393A5
:10079800039A2B7806A88DF80040FFF79FFC07A85E
:1007A800FFF71EFE08A802F090FA012000E00020E2
:1007B8004CB070BD740500206D0500201E5408085B
:1007C800325408087FB52649054602F0F2FA28B9DE
:1007D8002449284602F0EDFA00283FD002F038FEFE
:1007E8000420FFF777FC204C1D492070284602F0B2
:1007F800E0FA0646A0B11D4B00221B781C498DF873
:10080800002002A81B4AFFF769FC03A8FFF7E8FDD0
:100818002378012243F001032370174B1A7016E066
:100828001049284602F0C5FA88B1104B134A1B78C4
:100838000F4902A88DF80060FFF750FC03A8FFF7E6
:10084800CFFD237803F07E0323700B4B1E7002F05C
:10085800FFFD04202178FFF73FFC012004B070BDA4
:10086800F4560808DE550808160600206D05002015
:10087800F353080837540808F605002041540808BF
:1008880030B5184D18492A780E2303FB0212174C6D
:100898008FB02078009203FB0013154A282104A882
:1008A80001F08EF92B78237001F0DAF890B1FFF798
:1008B8004FFD104B00221B780F498DF8002002A82D
:1008C80004AAFFF70BFC03A8FFF78AFD00F0DCFE83
:1008D8000A4B186002F050FC04A902F068F90FB046
:1008E80030BD00BF820500200404002081050020DF
:1008F800535408086D050020615408088805002035
:100908007FB5974C2378013B062B00F2D581DFE8B1
:1009180013F05B01070033005C007400A700EB00D4
:10092800904B1B782BB1904B1B78022B01D0FFF713
:10093800A7FF8E4B1B780BB1FFF742FD8C4B1B7842
:100948004BB100F0A1FE8B4B1B68C01A8A4B1B6889
:10095800984200F2AE8102F029FB884B1B7898423E
:100968001CBF03232370864B1A68864B1B689A4268
:1009780000F3A281072326E07A4B1A781D462AB194
:10098800794B1B78032B01D0FFF77AFFFFF7E0FBC9
:100998000646B8B9012323702B78002B00F08C8110
:1009A800FFF7D6FC784B794A1B78794902A88DF86D
:1009B8000060FFF793FB03A8FFF712FD00F064FE49
:1009C800744B2EE00423237076E1664B1B782BB121
:1009D800654B1B78042B01D0FFF752FF01F040F85C
:1009E80000283BD002F0E2FA0C2802D1002001F0E6
:1009F80057F8FFF70BFD0523E5E75A4B1B782BB19A
:100A0800594B1B78052B01D0FFF73AFF624B1B7837
:100A18004BB902232370614A574B1A6000F034FE29
:100A2800544B186048E100F02FFE5D4B1B68C01A5C
:100A38004AF6C873984240F23F8100F025FE594BB0
:100A480000221860504B02A81B7857498DF80020E7
:100A5800564AFFF743FB03A8FFF7C2FC0123B2E79E
:100A6800404B1A781C462AB13F4B1B78062B01D005
:100A7800FFF706FF4E4B1D781E465DBB00F0F0FFEA
:100A8800C8B123788BB1FFF763FC3F4B494A1B7809
:100A98003F4902A88DF80050FFF720FB03A8FFF795
:100AA8009FFC00F0F1FD3B4B18604FF47A7001F0A9
:100AB8009FF8FFF7CDFB02F0CBFC3F4B02201978E3
:100AC800FFF70AFB3D4B00210720197002F093FC49
:100AD8000123337002F074FA394BC0F13C003C2218
:100AE8001B684243022136E01E4B1A781C462AB185
:100AF8001D4B1B78072B01D0FFF7C2FE00F0B0FF9B
:100B0800D0B1237893B1FFF723FC1F4B00221B7849
:100B18001F498DF8002002A82A4AFFF7DFFA03A828
:100B2800FFF75EFC00F0B0FD1A4B18604FF47A70C6
:100B380001F05EF8FFF78CFB204B002107201970AD
:100B480002F059FC02F03CFA3C22C0F13C001C4B7C
:100B580042431B68012102A802F05EF9ACE000BF25
:100B680082050020F70500208105002004060020EA
:100B7800F6050020F8050020E8050020E005002023
:100B880094050020640500206D05002072540808B3
:100B9800C05308088805002074040020905F0100F5
:100BA80068050020000600208C540808F352080845
:100BB8006C050020A5540808DC05002080050020ED
:100BC800EC050020B45408083C4B1B782BB13C4B77
:100BD8001B78012B01D0FFF753FE00F055FD394B70
:100BE8001B6803F5EA433033984265D9364B1B68D6
:100BF800032B16DC00F034FF60B1344B00221B7865
:100C080002A88DF800203249324AFFF767FA03A894
:100C1800FFF7E6FB4FF4FA6000F0EAFF02F0F8F89D
:100C28004AE002F0BCF9044602F012FC0520FFF786
:100C380051FA201AB0F5E15F1EDD00F011FF60B136
:100C4800224B00221B7802A88DF800202049224A56
:100C5800FFF744FA03A8FFF7C3FB4FF4FA6000F06C
:100C6800C7FF02F0F5FB00210220FFF735FA01214A
:100C7800042002F0C0FB1FE000F0F2FE60B1134B4D
:100C880000221B7802A88DF800201149134AFFF7AB
:100C980025FA03A8FFF7A4FB4FF4FA6000F0A8FFB9
:100CA80002F0D6FB00210220FFF716FAFFF75CFBE3
:100CB80002E0062323704EE604B070BDF70500205D
:100CC8008105002000060020DC0500206D050020BD
:100CD800C0530808CB540808DF540808F95408081A
:100CE8000023042200F094BE0246014801F016B920
:100CF800F91E08082DE9F041B8B008AA1646924B2B
:100D080003F11005144618685968083303C4AB4248
:100D18002246F7D119889B782D22A37021800DF1E6
:100D280033000021894F03F0E2FD0225012107204D
:100D38003D7002F04FFB0021052002F04BFB012122
:100D4800062002F047FB0021112002F043FB01219D
:100D5800042002F03FFB04A8002400F089FE0023D1
:100D68007D2218A904A802F036F8234622467849BD
:100D78000194009418A800F08BFE76497648FFF796
:100D8800AFFF23462A467549754800F041FE75496C
:100D9800234604220968744800F03AFE73497448EF
:100DA800FFF79EFF234601227249734800F030FE88
:100DB80072497348FFF794FF72497348FFF794FF2D
:100DC80072497348FFF790FF72497348FFF78CFF29
:100DD80072497348FFF788FF72497348FFF784FF29
:100DE80002F036FB2046FFF775F9012819D102F009
:100DF8002FFB0220FFF76EF9584C002220601146A5
:100E080002A8029200F028FC029B142B1ED1236832
:100E18000133236002F01CFB21780220FFF75CF904
:100E280014E002F015FB0125042202A920460295D0
:100E380000F052FC02F00CFB2846042202A90135FE
:100E4800029400F049FC0A2DF4D1D0E72368052B61
:100E580007DD02F0FDFA04210220FFF73DF9FFF754
:100E680083FA02F0F5FA0320FFF734F900F10C03D6
:100E7800DBB2182B03D840B203F0A8F900E0002039
:100E880002F02EF802F0E4FA0420FFF723F9DFF865
:100E9800E48000F00103454D88F80030444C454B90
:100EA800C0F380022870C0F3C0001A702070FFF7EA
:100EB800FBF9FFF74DF9052002F0B6FA58B92B787F
:100EC80088F8000023F001032B7002F0C1FA042116
:100ED8002878FFF701F9384B1A68384B1B689A4293
:100EE80002DC07233B7008E0FFF76EF928B90123FD
:100EF800334930463B7003F035FD0025FFF760FAB3
:100F08004FF0FF3301222F490095112001F06EFBAD
:100F180000F0A6FD08B123784BB900F0B5FB2A4BC9
:100F2800186004A801F0D1FE38B0BDE8F081274B65
:100F380002A81B7832468DF800502549FFF7CEF8F5
:100F480003A8FFF74DFAE8E7785208088205002061
:100F5800ED0408089C05002018550808DC05002049
:100F68001F550808000400202A5508080606002016
:100F780032550808F60500203D550808540500209C
:100F88004A550808C100080856550808CD0708083A
:100F980062550808C10508086F550808750608084D
:100FA8007A550808210708088755080816060020FA
:100FB800F7050020050600209405002064050020A0
:100FC80093550808B5000808880500206D0500201D
:100FD800A55508081A4B70B500241C60194B01254B
:100FE8001D7000F091FB22460321174800F04BF8D2
:100FF8004FF6FF72154B02201C705C809A8000F03F
:10100800BBFC2146284600F0CFFC2946104D0420A1
:1010180000F012FB0F4E2146284601F00FFA284631
:101028000D4D32460D4902F0ADFA2146284601F031
:10103800DCFB32462846BDE87040094902F0A2BAF6
:10104800EC0500206D05002018060020F0050020A2
:101058007805002050050020830500206324080837
:1010680011280808002300220383C2610362436237
:101078008362C36280F8303080F8313080F83230D3
:1010880080F83330704738B50446154600F028F923
:101098004FF47A7320462575E382FFF7E3FF204675
:1010A80038BD00002DE9F8430B6800F12005036204
:1010B8004B6804466B600B78222B0AD003D8102BA0
:1010C80042D1012308E0262B05D0282B3CD102234E
:1010D80002E0032300E0042384F83130204600F0C6
:1010E8000CF92946204600F0CFF9227D44212046FC
:1010F80000F092F9E08A00F07BFD204600F0FDF850
:101108002946204600F0C0F90022B821204600F008
:1011180083F900221146204600F07EF9204600F0AF
:10112800ECF82946204600F0AFF90022BE212046FF
:1011380000F072F994F83130042B0AD100221146DC
:10114800204600F069F904E0002084F83100BDE889
:10115800F88304F1270504F13006204600F084F9ED
:1011680005F8010FAE42F8D1082104F1280000F07B
:1011780024FA94F83030834205D0012384F83330C0
:101188000020BDE8F88394F8295094F8283094F8A2
:10119800312043EA0523042A238320D194F82A60C6
:1011A80045EA06232383ED08330684F8295047D5FA
:1011B800304603F007F802F099FC064628460F4629
:1011C80003F000F802F092FC00222B4B02F0E2FC44
:1011D80002460B463046394602F028FB46E0012A13
:1011E80003D046D3032A10D943E0B4F9183094F851
:1011F8002F20DB00102A238319D194F82E2023F006
:101208000F03C2F10C02134410E094F82C2012F0E2
:10121800600202D123F0070308E0202A02D123F05C
:10122800030303E0402A02D123F001032383B4F926
:10123800180002F0CBFF4FF0765103F01BF817E0CF
:10124800284602F0BFFF02F051FC00220A4B02F0D0
:10125800A1FC80463046894602F0B4FF02F046FC05
:1012680002460B464046494602F0E2FA02F0A4FE66
:10127800E0610120BDE8F8830000A03F38B50446CE
:10128800FFF7F0FE00F12005294600F01BF930B900
:10129800012384F83230204600F008F911E00721D4
:1012A800284600F08AF994F82730834203D00123B6
:1012B80084F8333005E029462046BDE83840FFF77A
:1012C800F1BE002038BDC069704700F01DBA028821
:1012D8001C2353434268D118D3588A885A837047CD
:1012E80038B504460D4600F00FFA00216060284624
:1012F80002F070F82580204638BD38B5054601F063
:101308009FF90021288800F007FA01F09BF97D2455
:10131800013C14F0FF042DD0022000F0ADF928881C
:1013280000F012FA10F0FF0FF2D001F089F9284608
:10133800FFF7CDFF0121288800F0EEF901F082F9CE
:101348004FF4F07000F098F901F07AF9002128883C
:1013580000F0E2F9462000F08FF9288800F0F4F94F
:10136800C0B2B0FA80F401F06DF94FF4CD706409A1
:1013780000F082F9204638BD38B511F00105044661
:1013880013D001F05DF92046FFF7A1FF0121208865
:1013980000F0C2F90A2000F06FF92088002100F05F
:1013A800BBF901F04FF9372012E001F049F9204666
:1013B800FFF78DFF0121208800F0AEF9412000F0F1
:1013C8005BF92088294600F0A7F901F03BF90520D0
:1013D800BDE8384000F050B910B5044601F030F9C6
:1013E8002046FFF774FF0121208800F095F90320BB
:1013F80000F042F90021208800F08EF90A2000F060
:101408003BF9208800F0A0F9044601F01BF93520CB
:1014180000F032F9E0B210BD2DE9F04105468846EA
:1014280017460826012418EA040F14BF01210021D9
:101438002846FFF7A1FF6400013EE4B2F3D18FB163
:1014480001F0FEF82A881C2353436A68D118D35840
:101458008A8801211A83288800F05EF9BDE8F041E6
:1014680001F0F0B8BDE8F081F8B507460826002578
:1014780001243846FFF7B0FF00B125436400013E60
:10148800E4B2F6D12846F8BD70B500220C465521C5
:101498000646FFF7C1FF651E073415F8011F002235
:1014A8003046FFF7B9FFA542F7D170BD002303749A
:1014B8008374437400F11002083002F8013D82423F
:1014C800FBD170472DE9F047857C04468846002DFE
:1014D8005ED1FFF712FF20B92074A0746074BDE8D4
:1014E800F0872A46F02120460126FFF795FFAA46F5
:1014F80037462046FFF770FF81462046FFF76CFF0E
:10150800B9F1010F02D101281BD137E0814504EB65
:1015180005031ED1227C974207D21A7A164214BFBD
:101528004FF001094FF0000904E00CBF4FF001092A
:101538004FF00009B9F1000F03D1082F08D86774DC
:1015480006E06219137A4FF001093343137204E07D
:10155800BA461A7A22EA06021A72494620467600E4
:10156800FFF70AFF16F0FF0604BF0135EDB207F1D9
:10157800010708BF0126072DFFB2BAD9402F07D9A6
:1015880084F810A0BAF1000F12D10123A3740FE060
:1015980000202074A0746074E31D08F1FF380F3434
:1015A80013F8012FA34208F8012FF9D1BDE8F087FD
:1015B800237A002BECD00120EEE730B50546002059
:1015C8000139C9B2FF2913D015F8014B082280EA66
:1015D800040313F0010F4FEA50001CBF80F08C0386
:1015E800D8B2531E13F0FF024FEA5404EFD1E7E7D5
:1015F80030BD00F089B8000008B5024B1B68DB6BF2
:10160800019308BD2000060808B5024B1B685B6CF7
:10161800019308BD2000060808B5024B1B689B6CA7
:10162800019308BD2000060808B5024B1B681B6B18
:10163800019308BDD001040808B5024B1B685B6E16
:10164800019308BDB801040808B5024B1B689B6EDE
:10165800019308BDB801040808B5024B1B68DB6E8E
:10166800019308BDB801040808B5024B1B685B6804
:10167800019308BD9C01040808B5024B1B68DB6890
:10168800019308BD9C01040808B5024B1B685B69FF
:10169800019308BD9C01040808B5024B1B68DB696F
:1016A800019308BD9C01040808B5024B1B689B6A9E
:1016B800019308BD9C01040808B5024B1B68DB6A4E
:1016C800019308BD9C01040808B5024B1B681B6BFD
:1016D800019308BD9C01040808B5024B1B689B6C6C
:1016E800019308BD9C01040808B5024B1B689B6D5B
:1016F800019308BD9C01040808B5024B1B68DB6D0B
:10170800019308BD9C01040808B5024B1B681B68BF
:10171800019308BDB001040808B5024B1B689B681B
:10172800019308BDB001040808B5024B1B68DB68CB
:10173800019308BDB001040808B5024B1B681B697A
:10174800019308BDB001040808B5024B1B685B692A
:10175800019308BDB001040808B5024B1B689B69DA
:10176800019308BDB001040808B5024B1B68DB698A
:10177800019308BDB001040808B5024B1B681B6A39
:10178800019308BDB001040808B5024B1B685B6AE9
:10179800019308BDB001040808B5024B1B68DB685B
:1017A800019308BDAC01040808B5024B1B685B69CE
:1017B800019308BDAC01040808B5024B1B689B697E
:1017C800019308BDAC01040808B5024B1B68DB692E
:1017D800019308BDAC01040808B5024B1B681B6ADD
:1017E800019308BDAC01040808B5024B1B685B6A8D
:1017F800019308BDAC01040808B5024B1B689B6A3D
:10180800019308BDAC01040808B5024B1B68DB6AEC
:10181800019308BDAC01040808B5024B1B681B6B9B
:10182800019308BDAC01040808B5024B1B685B6B4B
:10183800019308BDAC01040808B5024B1B681B6C7A
:10184800019308BDAC01040808B5024B1B689B6CEA
:10185800019308BDAC01040808B5024B1B68DB6C9A
:10186800019308BDAC01040808B5024B1B68DB698D
:10187800019308BDB401040808B5024B1B681B6A34
:10188800019308BDB401040808B5024B1B689B69A5
:10189800019308BDC401040808B5024B1B685B6AC4
:1018A800019308BDC401040808B5024B1B689B6A74
:1018B800019308BDC401040808B5024B1B68DB6A24
:1018C800019308BDC401040808B5024B1B681B6BD3
:1018D800019308BDC401040808B5024B1B685B6B83
:1018E800019308BDC401040808B5024B1B689B6B33
:1018F800019308BDC401040808B5024B1B681B6CA2
:10190800019308BDC401040808B5024B1B681B6895
:10191800019308BD1C00060808B5024B1B681B692B
:10192800019308BD1C00060808B5024B1B685B69DB
:10193800019308BD1C00060808B5024B1B689B698B
:10194800019308BD1C00060808B5024B1B68DB693B
:10195800019308BD1C00060808B5024B1B681B6AEA
:10196800019308BD1C00060808B5024B1B681B68DC
:10197800019308BDA401040808B5024B1B685B6805
:10198800019308BDA401040808B5024B1B685B69F4
:10199800019308BDA401040808B5024B1B689B69A4
:1019A800019308BDA401040808B5024B1B68DB6A53
:1019B800019308BDA401040808B5024B1B68DB6C41
:1019C800019308BDA401040808B5024B1B685B6DB0
:1019D800019308BDA401040808B5024B1B689B6D60
:1019E800019308BDA401040808B5034B1B68D3F88C
:1019F8009030019308BD0000A401040808B5034B0A
:101A08001B68D3F89C30019308BD0000A4010408AA
:101A180008B5024B1B681B68019308BDCC0104087C
:101A280008B5024B1B685B68019308BDCC0104082C
:101A380008B5024B1B689B68019308BDCC010408DC
:101A480008B5024B1B68DB68019308BDCC0104088C
:101A580008B5024B1B681B69019308BDCC0104083B
:101A680008B5024B1B685B69019308BDCC010408EB
:101A780008B5024B1B68DB69019308BDCC0104085B
:101A880008B5024B1B681B6A019308BDCC0104080A
:101A980008B5024B1B685B6A019308BDCC010408BA
:101AA80008B5024B1B68DB6A019308BDCC0104082A
:101AB80008B5024B1B681B6B019308BDCC010408D9
:101AC80008B5024B1B68DB6B019308BDCC01040809
:101AD80008B5024B1B685B68019308BDC801040880
:101AE80008B5024B1B689B68019308BDC801040830
:101AF80008B5024B1B68DB68019308BDC8010408E0
:101B080008B5024B1B681B69019308BDC80104088E
:101B180008B5024B1B685B69019308BDC80104083E
:101B280008B5024B1B689B69019308BDC8010408EE
:101B380008B5024B1B68DB69019308BDC80104089E
:101B480008B5024B1B681B6A019308BDC80104084D
:101B580008B5024B1B681B6B019308BDC80104083C
:101B680008B5024B1B685B6B019308BDC8010408EC
:101B780008B5024B1B681B68019308BDA001040847
:101B880008B5024B1B685B68019308BDA0010408F7
:101B980008B5024B1B689B68019308BDA0010408A7
:101BA80008B5024B1B681B69019308BDA001040816
:101BB80008B5024B1B689B69019308BDA001040886
:101BC80008B5024B1B68DB69019308BDA001040836
:101BD80008B5024B1B68DB6A019308BDA001040825
:101BE80008B5024B1B681B6B019308BDA0010408D4
:101BF8000021FFF7C9BE10B5836804460BB901F090
:101C0800C6FCC3689847A3681BB103222146204637
:101C180098472046BDE81040FEF73DBA002211461D
:101C28004068FFF76DBF2DE9FF41002604AC05466B
:101C380010468846174644F8046D02F0B6FE009632
:101C480081B2D8F8043022463846FFF7D5FC20B1D7
:101C58003146284600F028FD03E02146284600F0DA
:101C68001BFD284604B0BDE8F081002211464068FB
:101C7800FFF766BF002211464068FFF771BF0022D8
:101C88004068FFF765BF002281F001014068FFF757
:101C98004FBF00231A4619464068FFF741BF00238B
:101CA8001A4619464068FFF733BF002211464068BC
:101CB800FFF716BF002202214068FFF719BF002373
:101CC8001A464068FFF704BFF0B50F461A4B0025C7
:101CD80003601826283389B043608560C5603246A2
:101CE80029460446103002F002FE2A462946786842
:101CF800FFF706FF08B9A0601BE02946324602A894
:101D08000095019502F0F3FD02A96846ADF8086058
:101D1800FFF77AFC10B10123A3600AE0009B019A47
:101D2800A360E2600BB90223A36002A9204600F079
:101D38009DF8204609B0F0BD1C56080838B50C4C73
:101D480028252A460021204602F0D1FD4FF0FF3316
:101D580063602580074C042320466360064B2C25CE
:101D680040F8083B2A46002102F0C1FD258138BD14
:101D7800800600204C060020E85508087047007DC2
:101D88007047000008B5037D1BB18069B0F1004FB2
:101D980001D1002008BD02F019FA024902F01EFB29
:101DA80008BD00BF0000C84208B5037D1BB1006A2A
:101DB800B0F1004F01D1002008BD02F007FA024936
:101DC80002F00CFB08BD00BF0000C84270B50D460C
:101DD80006460A228168284600F041FF2C21044665
:101DE800284600F0D5FE0A220444F168284600F08F
:101DF80036FF204470BDA0F10400FFF7E7BF10B51F
:101E08000446FEF748F9204610BD000008B5037DDA
:101E18005BB1406A002808DB02F0D8F9044902F0F7
:101E2800DDFA044902F026FA08BD034808BD00BFE0
:101E380000FF7F470000C842000080BF08B5037D4F
:101E48005BB1C069002808DB02F0C0F9044902F060
:101E5800C5FA044902F00EFA08BD034808BD00BFE0
:101E680000FF7F470000C842000080BF30B50D4624
:101E780000F110040FCD0FC495E8030084E80300B7
:101E8800012030BD70470020704710B50446FEF7AA
:101E980002F9204610BD08B508B1FFF7F6FF08BDE6
:101EA80010B58368044613B10322014698472046BB
:101EB80010BD38B5C468D4B12378022B02D1E068CC
:101EC800FFF75EFE65682DB12846FFF7E9FF284653
:101ED800FEF7E1F8A5682DB12846FFF7E1FF28468F
:101EE800FEF7D9F82046BDE83840FEF7D4B838BD2B
:101EF80010B588B00446684600F02EFF694604A86D
:101F080000F04CFF04A8A047044604A800F0DDFE3A
:101F1800684600F0DAFE204608B010BDF0B5074666
:101F28000E46154685B0102422460021684602F068
:101F3800DEFC002269461046ADF800400297039681
:101F48000195FFF76DFD05B0F0BD13B5044691E8A6
:101F5800050000234B600B602060626001A80193BC
:101F68000093FEF73DFA204602B010BD0B680360EF
:101F780013B15A6801325A607047F7B50C460646E5
:101F88000F4654F8043B02AD45F8083D214601A828
:101F9800FFF7ECFF29463046FFF7D7FF01A8FEF709
:101FA8001FFA2046FEF71CFA3846FEF774F830464A
:101FB80003B0F0BD13B50B46044603C88DE8030013
:101FC80093E8030084E803009DE8030083E8030026
:101FD80002B010BD826810B50AB901F0D8FAC3681A
:101FE800BDE81040184708B5006800F11001FFF778
:101FF800F1FF08BD826810B50AB901F0C8FAC368D4
:10200800BDE81040184708B5006800F11001FFF757
:10201800F1FF08BD38B5002383608B6804460D4680
:102028002BB102229847EB68E360AB68A3602046B7
:1020380038BD00002DE9F0414FF69C7304684FF05D
:10204800020086B0B1F904208B8000230F688DF858
:1020580000300B60D4E84F1F994203D1C4E8450F04
:10206800002DF7D102D08DF800106BE014F10C05AB
:102078001CBFE7602282BFF35F8F18BF1F46012392
:102088006370BFF35F8F04F10803002053E8006F0B
:1020980043E80002002AF9D1BFF35F8F002E51D028
:1020A800FFF78AFC20B129463046FFF793FF43E04B
:1020B80031466846FFF7AEFFE068B4F9105008B142
:1020C80002F058FC04901020ADF81450FDF7E1FF21
:1020D800054630B34FF00008C0F808801820FDF717
:1020E800D8FF0446C0B1C0F8088001466846FFF72B
:1020F80061FF029BA268A360039B0292E268E3600F
:10210800BDF814300392A3824FF69C73ADF81430D7
:10211800049BCDF8108023610D4B2C60EB600D4BB8
:10212800AB600498FFF72CFD6846FFF7B9FE002264
:1021380029460948FFF748FC3046FFF7B1FE30460C
:10214800FDF7A9FF3846FFF71BFD06B0BDE8F08193
:10215800EF1F08084D220808FF1B08082DE9F04F5B
:102168008BB007AD4FF0000B0646994614200C23A0
:102178000F4690469DF850A0C5F804B0C5F808B0C1
:102188000793FDF786FF044638B180F800B080F861
:1021980001B0C0F804B0C0F808B0002310200394C0
:1021A8000493FDF776FF28B1012343608360234B36
:1021B800C4600360224B049008200893FDF769FF70
:1021C800044628B1039B04A940F8043BFFF7CEFE60
:1021D80000955FFA8AF34A46414638460994FFF764
:1021E8004FFCB8B9039B5B7803F0FF0293B94FF635
:1021F8009C7305A903A80592ADF81830FFF71AFFDC
:102208000598FFF7BDFC05A80999FFF7B6FE06A8D3
:10221800FEF7E6F8039B04A906A80593FFF7A6FEB8
:1022280005A93046FFF791FE06A8FEF7D9F804A8DD
:10223800FEF7D6F830460BB0BDE8F08F50560808C8
:10224800B5230808022AF8B5044606D0032A17D091
:10225800012A20D10B6803601DE018200E68FDF7E5
:1022680018FF054650B13146FFF7D4FE3069B6F97C
:10227800147008B102F07EFB2861AF8225600AE085
:10228800046844B12069FFF77BFC2046FFF708FE8D
:102298002046FDF700FF0020F8BD38B50023836015
:1022A8008B6804460D462BB102229847EB68E36021
:1022B800AB68A360204638BD022A70B5044606D034
:1022C800032A11D0012A17D10B68036014E01420E7
:1022D8000E68FDF7DEFE054620B13146FFF7DDFF4B
:1022E800337C2B74256007E004682CB12046FFF787
:1022F800D7FD2046FDF7CFFE002070BDF0B50C4697
:10230800BFF35F8F87B0002350E8006F40E80032CA
:10231800002AF9D1BFF35F8F002E3ED01846FFF791
:102328004BFB074620B121463046FFF763FE2EE0FF
:10233800314601A8FFF7B1FF237810208DF814303B
:10234800FDF7A7FE0546D0B187601420FDF7A1FE72
:10235800044678B18760014601A8FFF72BFE039B6E
:10236800A268A360049B0392E268E3609DF81430BE
:10237800049223740A4B2C60EB600A4BAB6001A8F3
:10238800FFF78EFD002229460748FFF71DFB304660
:10239800FFF786FD3046FDF77EFE07B0F0BD00BFB3
:1023A8000F200808C1220808FF1B080830B504469A
:1023B80085B00D4668461146FFF7DFFD7CB124B2B3
:1023C80028460DB102F0D6FA029002A96846ADF887
:1023D8000C40FFF72FFE0298FFF7D2FB1DE04FF0ED
:1023E800010200988DF80840D0E84F3FA34203D17E
:1023F800C0E8412F0029F7D102D08DF808300CE051
:1024080010F10C014FF0010318BF0373BFF35F8F86
:10241800043000F8033CFFF771FF01A8FDF7E0FF67
:1024280005B030BD006800F0CEB810B504460160B4
:1024380002710AB1FFF7F6FF204610BD38B5044611
:102448000D4601F039F82A4601462046FFF7EDFF10
:10245800204638BD006800F0BFB810B503790446BF
:102468000BB1FFF7F7FF204610BDF8B504460F463D
:1024780016461D46FFF7D6FF2068362100F098F86B
:102488002068394603689B6898470121206800F056
:1024980092F8022236210123206800F080F8206893
:1024A80003685B6998473070206803685B699847E0
:1024B80028702046BDE8F840FFF7CCBF13B50022CE
:1024C80002AB03F8012D8DF8062004210DF1060258
:1024D800FFF7CBFF9DF8070001F0F6FA0022084B42
:1024E80001F058FB01F068FD04469DF8060001F074
:1024F8006DFE0146204601F0B5FD02B010BD00BFDB
:102508000000703F7047F8B5064615460C468F1810
:10251800BC4206D0336814F8011B9B6830469847C4
:10252800F6E72846F8BD0022007CFFF755B90021E0
:10253800007CFFF759B90021007CFFF75DB9002145
:10254800007CFFF761B90021007CFFF765B910B581
:102558000446FDF7A0FD204610BD000010B5044656
:1025680008464FF47A73A360044B0021207461601D
:102578002360FFF761F9204610BD00BF6C560808BC
:1025880000231A461946007CFFF706B913B5002444
:10259800007C0094FFF708F9C0B202B010BDDBB2AE
:1025A800D2B2C9B2FFF7F2BF0022007CFFF704B92C
:1025B800C9B2FFF7F9BF0022007CFFF705B9002177
:1025C800007CFFF731B908B50021007CFFF73CF922
:1025D800B0FA80F0400908BD08B50021007CFFF77B
:1025E8003BF9B0FA80F0400908BD004707282DE9FB
:1025F800FF4105460F4690461E464FF0000419D08D
:10260800FFF7B2F8A6424FF0040303948DF80C309C
:10261800A2BF9DF8283003AC8DF80E3028460094F0
:1026280043463A460549A8BF8DF80D60FFF794F870
:10263800012000E0204604B0BDE8F081F325080839
:10264800FFF7A2B8FFF798B8704710B50446FDF732
:1026580022FD204610BDF8B50F4600F10806051DFD
:10266800002416F8011D0A22384600F0D4FAAE42BA
:10267800044407D0002CF4D02E21384600F088FA04
:102688000444EEE72046F8BD024A02600022426098
:10269800704700BF94560808024A02600A68426000
:1026A800704700BF94560808014A416002607047AD
:1026B8009456080810B59DF8084044EA032343EAF5
:1026C800024242EA0161416010BD000037B5044D85
:1026D80005609DF818500095FFF7ECFF03B030BD7A
:1026E80094560808014A024B1A6070475557080863
:1026F800A806002000231A464068FFF7E9B900221F
:1027080002214068FFF7F4B9002211464068FFF73C
:10271800E7B9002211464068FFF7F2B900231A46CC
:1027280019464068FFF7F4B900231A46194640686D
:10273800FFF7F6B9002281F001014068FFF7F8B908
:1027480000224068FFF704BA002211464068FFF7EC
:1027580007BA002211464068FFF7F2B9F0B51746EC
:1027680087B0054604A8FFF78FFF002606AC384659
:1027780044F80C6D02F019F90A4B009681B25B68B7
:1027880022463846FEF738FF20B131462846FFF783
:102798008BFF03E021462846FFF77EFF284607B057
:1027A800F0BD00BF4C060020024B034A1A6000220D
:1027B8005A607047AC0600208857080808B500F032
:1027C8007BFEFFF7FCFE18B900F076FEFFF7D8FE97
:1027D80000F072FEBDE80840FFF7F1BE08B500F052
:1027E8006BFEBDE80840FFF7EEBE10B50446017069
:1027F80009B1FFF7F3FF204610BD08B500F05CFEF5
:10280800BDE80840FFF7E8BE10B5037804460BB1F1
:10281800FFF7F3FF204610BD10B504460068FFF728
:10282800ECFF204610BD37B502AC0D4644F8040D48
:10283800FFF7D4FF00F040FE6B21FFF7B9FE00F070
:102848003BFE036829469B68984700F035FE012146
:10285800FFF7B1FE00F030FE01231A466B21FFF7A7
:102868009EFE00F029FE03685B69984705462046EE
:10287800FFF7D2FFE8B203B030BD73B502AC15461E
:102888000E4644F8040DFFF7A9FF00F015FE6B2172
:10289800FFF78EFE00F010FE036831469B689847EC
:1028A80000F00AFE036829469B68984700F004FE7A
:1028B8000121FFF780FE2046FFF7AEFF02B070BD92
:1028C80037B504460D460190FFF788FF00212046E2
:1028D800FFF7A9FF41F258139D4200F087025BD031
:1028E80020D841F218039D424DD00CD840F6787399
:1028F8009D4242D040F6C8739D4241D040F62873AD
:102908009D4260D159E041F2B8039D423ED041F268
:1029180008139D423DD041F268039D4253D142F0D5
:1029280020024AE041F298239D423ED00ED841F25F
:10293800F8139D4233D041F248239D4232D041F2F0
:10294800A8139D423FD142F0400236E041F23833AD
:102958009D422DD006D841F2E8239D4233D142F062
:1029680060022AE041F288339D4224D041F2D833F4
:102978009D4228D142F078021FE042F008021CE094
:1029880042F0100219E042F0180216E042F0280264
:1029980013E042F0300210E042F038020DE042F05D
:1029A80048020AE042F0500207E042F0580204E010
:1029B80042F0680201E042F0700220460021FFF771
:1029C8005CFF012400E0002401A8FFF725FF204652
:1029D80003B030BD37B504460D460190FFF7FEFE43
:1029E80000212046FFF71FFFB5F5617F00F0F802D0
:1029F80023D007D8962D1AD0B5F5FA7F1AD0642DB2
:102A080029D122E040F2DC539D4219D005D8B5F512
:102A1800966F20D142F0040217E0B5F5FA6F12D094
:102A280040F6B8339D4216D142F007020DE042F05D
:102A380001020AE042F0020207E042F0030204E069
:102A480042F0050201E042F0060220460021FFF7AD
:102A580014FF012400E0002401A8FFF7DDFE204652
:102A680003B030BDF7B50C46174605461E46019023
:102A7800FFF7B4FE002C0CBF0024802417B144F0EB
:102A88004004E4B20EB144F020049DF820300BB1AC
:102A980044F010049DF824300BB144F008049DF86C
:102AA80028300BB144F0040402212846FFF7BBFE8E
:102AB80000F00102224302212846FFF7DEFE01A8AA
:102AC800FFF7AAFE012003B0F0BD37B504460D4656
:102AD8000190FFF783FE04212046FFF7A4FE41F290
:102AE80010039D4200F0030206D041F270039D429C
:102AF8000AD142F0B00201E042F0980220460421D7
:102B0800FFF7BBFE012400E0002401A8FFF784FEC4
:102B1800204603B030BD37B5054602AC44F8040D75
:102B2800FFF75CFE05212846FFF77DFE052100F032
:102B3800CE022846FFF7A1FE2046FFF76DFE0120D2
:102B480003B030BDF8B506460D468F180024BD42C7
:102B58000CD0336815F8011B9B683046984700284D
:102B680001DB0444F3E7002C08BF04462046F8BD07
:102B780070B505460C46084649B101F016FF2B68AA
:102B8800024621462846BDE87040DB68184770BDFC
:102B980003689B68184738B50D210546FFF7F8FF0D
:102BA8000A2104462846FFF7F3FF204438BD38B50C
:102BB8000546FFF7DDFF04462846FFF7ECFF2044F3
:102BC80038BD012A98BF0A2230B50B468BB00021C8
:102BD8008DF824100DF12304B3FBF2F505FB123335
:102BE800DBB2092B94BF30333733DBB2214604F80C
:102BF80001392B46002DEFD1FFF7BAFF0BB030BDDE
:102C080010B422B90368C9B29B6810BC1847D2B285
:102C180010BCFFF7D6BFFFF7F3BF2DE9F041074619
:102C28000E4615462AB9BDE8F0410368C9B29B684B
:102C380018470A2A02D1002901DA04E0D2B2BDE815
:102C4800F041FFF7BEBF2D21FFF7A2FF2A46044639
:102C580071423846FFF7B5FF2044BDE8F081FFF721
:102C6800DCBF10B50446FFF71BF9204610BD000075
:102C7800034800238360034A034900F083BC00BF74
:102C8800B4060020500500206B2C0808704710B5CA
:102C98000446FDF700FA204610BD000070B5044652
:102CA8000E46074B0025036040F80C5FFEF7BCFC9E
:102CB80030462671FEF7D8FDA560204670BD00BFDE
:102CC800BC5708080079FEF7D7BD10B50446006860
:102CD800FEF756FF204610BD10B50446006808B13F
:102CE800FEF74EFF00232360A360636010BD38B574
:102CF80004460D4600680131FEF74AFF10B184E82A
:102D08002100012038BD10B50368044613B143689B
:102D18008B4207D22046FFF7EAFF20B1A3680BB920
:102D280022681370012010BD70B50E461146044686
:102D38001546FFF7E8FF18B92046FFF7CDFF09E071
:102D48002A463146A560206801F0C6FD2268A368BE
:102D58000021D154204670BD38B5002304460360D5
:102D68004360836003730D4639B1084601F01DFEC8
:102D7800294602462046FFF7D7FF204638BD88423D
:102D880010B50B46044607D0096819B19A68FFF7D1
:102D9800CBFF01E0FFF7A0FF204610BD10B50446A9
:102DA80000230360436083600373FFF7E8FF204656
:102DB80010BD08B582680B4612B919B9012008BDC3
:102DC80011B90368187802E0006801F0C1FDB0FA93
:102DD80080F0400908BD70B50E469AB191B185687A
:102DE8009D4202D800230B7070BD541EED1AAC42F0
:102DF80028BF2C46016822461944304601F0F2FDEE
:102E08000023335570BD014600228C20FEF71CBC00
:102E18000020FFF7F8BF000010B504460846114629
:102E28001A460023FEF7B8FD064B00221A704FF62B
:102E3800FF7258809A801A689B882260A380204677
:102E480010BD00BFC40600204FF6FF72034B0020E0
:102E5800187058809A80FEF78FBD00BFC406002006
:102E6800F0B5144B144F1E68144B064418683B68A1
:102E780006449E428BB01BD00AA840F8286D01F08A
:102E880033FC0446436901AD03F26C7343610FCC14
:102E98000FC50FCC0FC5D4F800E0094CC5F800E009
:102EA80001AD0FCD0FC40FCD0FC43E60C4F800E0D4
:102EB8000BB0F0BDFC060020F8060020F406002048
:102EC800CC06002008B50020FEF7F2FD28B1FEF779
:102ED800C7FD80F00100C0B208BD012008BD000098
:102EE80010B50949044601F063FB60B9074920465B
:102EF80001F07CFB38B90649204601F0BBF901F026
:102F08007FFB044B186010BD000040C10000604109
:102F180000006145FC06002037B50E4B04461B68CF
:102F280002A819440C4B1B68194440F8041D01F011
:102F3800DBFB01F08BFB054601F037FD002328443D
:102F480000F8013C29462046FFF706FF204603B05B
:102F580030BD00BFFC060020F406002010B500209C
:102F6800FEF7C2FB044668B9FEF7FEFC01280BD148
:102F78002046FEF731FD38B9FFF7A4FF30B9FEF758
:102F880057FDF9E7012010BD002010BDFFF79AFF9B
:102F98000020FEF7A9FB003018BF012010BD08B5BE
:102FA800FFF7DCFFBDE80840FEF776BB08B5FFF782
:102FB800F6FFFFF755FF014B986808BDCC060020C7
:102FC80008B5FFF7ECFFFFF74BFF014B586808BD4A
:102FD800CC06002008B5FFF7E2FFFFF741FF014BE1
:102FE800D86808BDCC060020024B1A68024B1A604C
:102FF800704700BF98040020F00600207047417415
:103008007047007CFEF778BC007CFEF74DBC007C66
:10301800FEF75ABC007CFEF74FBC007CFEF75CBC98
:1030280010B50446FDF737F8204610BD70B5457C4D
:1030380004460E4625B9007CFEF75EFC002805DD37
:103048003146207CBDE87040FEF726BC284670BD9E
:1030580010B5044608461146002262604FF47A72A1
:10306800A260054A20742260012262741A46FEF7A3
:103078000BFC204610BD00BFF4570808007CFEF783
:1030880033BC000038B50C4D296811F0010411D18A
:103098002846FDF702F868B1084A2146084B094856
:1030A800FFF7D6FF2846FCF7FDFF074A0749054802
:1030B80000F068FA034838BD980700209C070020F4
:1030C80014070020000700205005002005300808DC
:1030D8004174704770470021007CFEF72DBC012128
:1030E800007CFEF729BC007CFEF71EBC007CFEF7C6
:1030F80013BC38B50446007C0D46FEF715FC0028C5
:1031080001DC607C20B12946207CFEF71DFC0120F3
:1031180038BD007CFEF720BC10B50446FCF7BBFFA9
:10312800204610BD10B50446002363604FF47A733F
:10313800A360054B0846236001232174637411467C
:10314800FEF7E2FB204610BD2458080810B50446D7
:103158001422002101F0CBFB054B20466360054B90
:10316800E36040F2011323818123238210BD00BF55
:10317800A50800202408002030B50E4D87B001A80E
:10318800FFF7E4FF296811F0010410D12846FCF785
:1031980084FF60B101AA21460748FFF7C3FF28460C
:1031A800FCF780FF054A0649034800F0EBF902489E
:1031B80007B030BD20080020A809002050050020D5
:1031C800DD30080810B504461422002101F08FFBF9
:1031D800054B20466360054BE36040F201132381F1
:1031E8008123238210BD00BF580A0020C009002097
:1031F80010B50E4C86B001A8FFF7E4FF2368DB0783
:1032080010D42046FCF749FF60B101AA0121084803
:10321800FFF788FF2046FCF745FF064A06490448A1
:1032280000F0B0F9024806B010BD00BFBC0900208C
:10323800440A002050050020DD30080808B5184B66
:1032480033B1FFF799FF03681B69984700281EDC14
:10325800144B33B1FFF716FF03681B699847002822
:1032680018DC114B0BB1AFF30080104B0BB1AFF36F
:1032780000800F4B0BB1AFF300800E4B7BB1FFF713
:10328800B7FF03681B699847002806DC08BDAFF341
:103298000080DDE7AFF30080E3E7AFF3008008BD0F
:1032A8000000000000000000000000000000000016
:1032B800000000000000000008B5FFF7BFFFFEF7A0
:1032C800E3F9014B186008BD640B00200248034A6B
:1032D8000349121A01F000BB0040024004400240BA
:1032E800E05A080807B5002300931A466FF07701E3
:1032F800FEF784FB03B05DF804FB000007B54388C4
:103308000A2B08D0502B09D1094B1B683BB103B0DD
:103318005DF804EB1847FFF7E5FF06E0002300938C
:103328001A466FF07701FEF769FB03B05DF804FBFE
:103338005C0B002038B5104C104D2368AB42104B85
:103348000CBF012200221A7002D0FFF7BFFF2560D0
:10335800FEF78AF9044601F0D3FA0A4B13B1204666
:10336800AFF3008000210748FEF7AAFBBDE838400C
:1033780000210548FEF738BB004002401E1C279A72
:10338800600B0020000000000533080810B5044653
:103398000F48FFF797FC28B1A4F10D03022B01D8C1
:1033A800002010BD00F068F8FFF709F908B1012CFA
:1033B800F6D9FFF767FEFFF761FE18B1A4F1120313
:1033C800012BEDD92E2C8CBF0020012010BD00BF91
:1033D800A80B00202E2838B504460D460AD8FF2928
:1033E80008D0FFF7D3FF28B129462046BDE838406A
:1033F800FEF792B938BD38B504460D46FEF794F984
:10340800FF2810D0062804D84D2323FA00F0C3075C
:1034180009D42046FFF7BAFF28B129462046BDE85F
:103428003840FEF789B938BD10B50446FEF77CF977
:103438000438C0B2012808D92046FFF7A7FF20B1F9
:103448002046BDE81040FEF77FB9002010BD0000FF
:1034580010B5074C2368DB0708D42046FCF71DFE8F
:1034680020B1FEF721F92046FCF71CFE014810BDEB
:10347800680B00206C0B002038B50B4D296811F043
:1034880001040FD12846FCF708FE58B12146074829
:10349800FFF764F82846FCF705FE054A0549034886
:1034A80000F070F8014838BD700B0020880B002030
:1034B800500500200D25080810B50B4C2368DB07C4
:1034C8000FD42046FCF7E9FD58B102210748FFF761
:1034D80045F82046FCF7E6FD054A0649034800F092
:1034E80051F8024810BD00BF9C0B0020740B00204F
:1034F800500500200D25080813B5084C00231A466E
:10350800194600932046FFF7E1F82046044A05498A
:1035180002B0BDE8104000F035B800BFA00B002095
:10352800500500205126080870B5114E114D124C57
:1035380000213046FFF7B2FB3046104E2A4621469E
:1035480000F020F801213046FFF7A8FB30460C4E6A
:103558002A46214600F016F802213046FFF79EFB66
:103568002A4621463046BDE8704000F00BB800BF3F
:10357800A80B002050050020952C0808B80B002047
:10358800C80B00200B460146184601F09FB808B545
:10359800FEF71EFB244B1A68D0075CBF01221A6095
:1035A800224B1A68D1075CBF01221A60204B1A68A7
:1035B800D2075CBF01221A601E4B1A68D0075CBF95
:1035C80001221A601C4B1A68D1075CBF01221A60DD
:1035D8001A4B1A68D2075CBF01221A60184B1A6886
:1035E800D0075CBF01221A60164B1A68D1075CBF6E
:1035F80001221A60144B1A68D2075CBF01221A60B4
:10360800124B1A68D0075CBF01221A60104B1A6867
:10361800D1075CBF01221A600E4B1A68D2075CBF43
:1036280001221A60704700BF040C0020000C002023
:10363800FC0B0020F80B0020F40B0020F00B0020FE
:10364800EC0B0020E80B0020E40B0020E00B00202E
:10365800DC0B0020D80B0020184B1A68D1075CBF80
:1036680001221A60164B1A68D2075CBF01221A6041
:10367800144B1A68D0075CBF01221A60124B1A68F3
:10368800D1075CBF01221A60104B1A68D2075CBFD1
:1036980001221A600E4B1A68D0075CBF01221A601B
:1036A8000C4B1A68D1075CBF01221A600A4B1A68D2
:1036B800D2075CBF01221A60704700BF240C0020AB
:1036C800200C00201C0C0020180C0020140C0020DA
:1036D800100C00200C0C0020080C0020184B1A6855
:1036E800D1075CBF01221A60164B1A68D2075CBF6B
:1036F80001221A60144B1A68D0075CBF01221A60B5
:10370800124B1A68D1075CBF01221A60104B1A6865
:10371800D2075CBF01221A600E4B1A68D0075CBF43
:1037280001221A600C4B1A68D1075CBF01221A608B
:103738000A4B1A68D2075CBF01221A60704700BFA3
:10374800440C0020400C00203C0C0020380C0020C9
:10375800340C0020300C00202C0C0020280C0020F9
:10376800244B1A68D0075CBF01221A60224B1A68E2
:10377800D1075CBF01221A60204B1A68D2075CBFD0
:1037880001221A601E4B1A68D0075CBF01221A601A
:103798001C4B1A68D1075CBF01221A601A4B1A68C1
:1037A800D2075CBF01221A60184B1A68D0075CBFA9
:1037B80001221A60164B1A68D1075CBF01221A60F1
:1037C800144B1A68D2075CBF01221A60124B1A68A0
:1037D800D0075CBF01221A60104B1A68D1075CBF82
:1037E80001221A600E4B1A68D2075CBF01221A60C8
:1037F800704700BF740C0020700C00206C0C002077
:10380800680C0020640C0020600C00205C0C002078
:10381800580C0020540C0020500C00204C0C0020A8
:10382800480C002081F0004102E000BF83F0004313
:1038380030B54FEA41044FEA430594EA050F08BF43
:1038480090EA020F1FBF54EA000C55EA020C7FEA07
:10385800645C7FEA655C00F0E2804FEA5454D4EB84
:103868005555B8BF6D420CDD2C4480EA020281EA4E
:10387800030382EA000083EA010180EA020281EA86
:103888000303362D88BF30BD11F0004F4FEA0131D8
:103898004FF4801C4CEA113102D0404261EB4101E7
:1038A80013F0004F4FEA03334CEA133302D052426D
:1038B80063EB430394EA050F00F0A780A4F1010429
:1038C800D5F1200E0DDB02FA0EFC22FA05F2801863
:1038D80041F1000103FA0EF2801843FA05F3594149
:1038E8000EE0A5F120050EF1200E012A03FA0EFCC8
:1038F80028BF4CF0020C43FA05F3C01851EBE371F2
:1039080001F0004507D54FF0000EDCF1000C7EEB0E
:1039180000006EEB0101B1F5801F1BD3B1F5001F4C
:103928000CD349085FEA30004FEA3C0C04F101046B
:103938004FEA445212F5800F80F09A80BCF1004F94
:1039480008BF5FEA500C50F1000041EB045141EA16
:10395800050130BD5FEA4C0C404141EB010111F417
:10396800801FA4F10104E9D191F0000F04BF0146C2
:103978000020B1FA81F308BF2033A3F10B03B3F1A0
:1039880020020CDA0C3208DD02F1140CC2F10C0230
:1039980001FA0CF021FA02F10CE002F11402D8BF8E
:1039A800C2F1200C01FA02F120FA0CFCDCBF41EA5A
:1039B8000C019040E41AA2BF01EB0451294330BD29
:1039C8006FEA04041F3C1CDA0C340EDC04F1140406
:1039D800C4F1200220FA04F001FA02F340EA0300DD
:1039E80021FA04F345EA030130BDC4F10C04C4F123
:1039F800200220FA02F001FA04F340EA0300294603
:103A080030BD21FA04F0294630BD94F0000F83F44C
:103A1800801306BF81F480110134013D4EE77FEA2F
:103A2800645C18BF7FEA655C29D094EA050F08BF7B
:103A380090EA020F05D054EA000C04BF194610465C
:103A480030BD91EA030F1EBF0021002030BD5FEAA0
:103A5800545C05D14000494128BF41F0004130BDC8
:103A680014F580043CBF01F5801130BD01F000451C
:103A780045F0FE4141F470014FF0000030BD7FEA8F
:103A8800645C1ABF194610467FEA655C1CBF0B468A
:103A9800024650EA013406BF52EA033591EA030FA1
:103AA80041F4002130BD00BF90F0000F04BF002199
:103AB800704730B54FF4806404F132044FF00005CC
:103AC8004FF0000150E700BF90F0000F04BF002145
:103AD800704730B54FF4806404F1320410F00045AB
:103AE80048BF40424FF000013EE700BF42004FEAA6
:103AF800E2014FEA31014FEA02701FBF12F07F4323
:103B080093F07F4F81F06051704792F0000F14BF1F
:103B180093F07F4F704730B54FF4607401F0004563
:103B280021F0004120E700BF50EA010208BF7047BA
:103B380030B54FF000050AE050EA010208BF7047AF
:103B480030B511F0004502D5404261EB41014FF418
:103B5800806404F132045FEA915C3FF4DCAE4FF01C
:103B680003025FEADC0C18BF03325FEADC0C18BF03
:103B7800033202EBDC02C2F1200300FA03FC20FA54
:103B880002F001FA03FE40EA0E0021FA02F11444A1
:103B9800C1E600BF70B54FF0FF0C4CF4E06C1CEAB6
:103BA80011541DBF1CEA135594EA0C0F95EA0C0F2B
:103BB80000F0DEF82C4481EA030621EA4C5123EA9E
:103BC8004C5350EA013518BF52EA033541F48011CD
:103BD80043F4801338D0A0FB02CE4FF00005E1FB80
:103BE80002E506F00042E0FB03E54FF00006E1FBCA
:103BF80003569CF0000F18BF4EF0010EA4F1FF040D
:103C0800B6F5007F64F5407404D25FEA4E0E6D414C
:103C180046EB060642EAC62141EA55514FEAC5205D
:103C280040EA5E504FEACE2EB4F1FD0C88BFBCF5D9
:103C3800E06F1ED8BEF1004F08BF5FEA500E50F18A
:103C4800000041EB045170BD06F0004646EA010150
:103C580040EA020081EA0301B4EB5C04C2BFD4EB82
:103C68000C0541EA045170BD41F480114FF0000E7B
:103C7800013C00F3AB8014F1360FDEBF002001F0E9
:103C8800004170BDC4F10004203C35DA0C341BDC63
:103C980004F11404C4F1200500FA05F320FA04F035
:103CA80001FA05F240EA020001F0004221F0004169
:103CB80010EBD37021FA04F642EB06015EEA430EDC
:103CC80008BF20EAD37070BDC4F10C04C4F120050C
:103CD80000FA04F320FA05F001FA04F240EA0200BF
:103CE80001F0004110EBD37041F100015EEA430E90
:103CF80008BF20EAD37070BDC4F1200500FA05F2B0
:103D08004EEA020E20FA04F301FA05F243EA02032E
:103D180021FA04F001F0004121FA04F220EA02003D
:103D280000EBD3705EEA430E08BF20EAD37070BD83
:103D380094F0000F0FD101F00046400041EB010163
:103D480011F4801F08BF013CF7D041EA060195F045
:103D5800000F18BF704703F00046520043EB0303FF
:103D680013F4801F08BF013DF7D043EA06037047EC
:103D780094EA0C0F0CEA135518BF95EA0C0F0CD0F7
:103D880050EA410618BF52EA4306D1D181EA03013D
:103D980001F000414FF0000070BD50EA410606BF37
:103DA8001046194652EA430619D094EA0C0F02D17C
:103DB80050EA013613D195EA0C0F05D152EA0336C1
:103DC8001CBF104619460AD181EA030101F00041DF
:103DD80041F0FE4141F470014FF0000070BD41F028
:103DE800FE4141F4780170BD70B54FF0FF0C4CF402
:103DF800E06C1CEA11541DBF1CEA135594EA0C0F21
:103E080095EA0C0F00F0A7F8A4EB050481EA030E6D
:103E180052EA03354FEA013100F088804FEA033354
:103E28004FF0805545EA131343EA12634FEA022222
:103E380045EA111545EA10654FEA00260EF00041E3
:103E48009D4208BF964244F1FD0404F5407402D235
:103E58005B084FEA3202B61A65EB03055B084FEAC6
:103E680032024FF480104FF4002CB6EB020E75EBC3
:103E7800030E22BFB61A754640EA0C005B084FEAEB
:103E88003202B6EB020E75EB030E22BFB61A754668
:103E980040EA5C005B084FEA3202B6EB020E75EBB3
:103EA800030E22BFB61A754640EA9C005B084FEA2B
:103EB8003202B6EB020E75EB030E22BFB61A754638
:103EC80040EADC0055EA060E18D04FEA051545EA27
:103ED80016754FEA06164FEAC30343EA52734FEAD0
:103EE800C2025FEA1C1CC0D111F4801F0BD141EA49
:103EF80000014FF000004FF0004CB6E711F4801FAE
:103F080004BF01430020B4F1FD0C88BFBCF5E06F8D
:103F18003FF6AFAEB5EB030C04BFB6EB020C5FEA9D
:103F2800500C50F1000041EB045170BD0EF0004EF2
:103F38004EEA113114EB5C04C2BFD4EB0C0541EA24
:103F4800045170BD41F480114FF0000E013C90E621
:103F580045EA060E8DE60CEA135594EA0C0F08BFE5
:103F680095EA0C0F3FF43BAF94EA0C0F0AD150EAE4
:103F780001347FF434AF95EA0C0F7FF425AF104677
:103F880019462CE795EA0C0F06D152EA03353FF49F
:103F9800FDAE1046194622E750EA410618BF52EA1C
:103FA80043067FF4C5AE50EA41047FF40DAF52EAF0
:103FB80043057FF4EBAE12E74FEA4102B2F1E0436A
:103FC80024BFB3F5001CDCF1FE5C0DD901F0004CF8
:103FD8004FEAC0024CEA5070B2F1004F40EB830048
:103FE80008BF20F00100704711F0804F21D113F174
:103FF8003872BCBF01F00040704741F480114FEAAD
:104008005252C2F11802C2F1200C10FA0CF320FA35
:1040180002F018BF40F001004FEAC1234FEAD32352
:1040280003FA0CFC40EA0C0023FA02F34FEA4303BC
:10403800CCE77FEA625307D150EA01331EBF4FF045
:10404800FE4040F44000704701F0004040F0FE4060
:1040580040F40000704700BF80F0004002E000BF5D
:1040680081F0004142001FBF5FEA410392EA030F5B
:104078007FEA226C7FEA236C6AD04FEA1262D2EBA5
:104088001363C1BFD218414048404140B8BF5B42AA
:10409800192B88BF704710F0004F40F4000020F043
:1040A8007F4018BF404211F0004F41F4000121F059
:1040B8007F4118BF494292EA030F3FD0A2F10102A3
:1040C80041FA03FC10EB0C00C3F1200301FA03F1E1
:1040D80000F0004302D5494260EB4000B0F5000F04
:1040E80013D3B0F1807F06D340084FEA310102F1C3
:1040F8000102FE2A51D2B1F1004F40EBC25008BF75
:1041080020F0010040EA03007047490040EB00003E
:1041180010F4000FA2F10102EDD1B0FA80FCACF16D
:10412800080CB2EB0C0200FA0CF0AABF00EBC2506C
:1041380052421843BCBFD0401843704792F0000F5A
:1041480081F4000106BF80F400000132013BB5E7AD
:104158004FEA41037FEA226C18BF7FEA236C21D023
:1041680092EA030F04D092F0000F08BF0846704788
:1041780090EA010F1CBF0020704712F07F4F04D156
:10418800400028BF40F00040704712F100723CBF69
:1041980000F50000704700F0004343F0FE4040F493
:1041A800000070477FEA226216BF08467FEA236351
:1041B8000146420206BF5FEA412390EA010F40F43C
:1041C800800070474FF0000304E000BF10F0004388
:1041D80048BF40425FEA000C08BF704743F096436F
:1041E80001464FF000001CE050EA010208BF70478A
:1041F8004FF000030AE000BF50EA010208BF704711
:1042080011F0004302D5404261EB41015FEA010C25
:1042180002BF84460146002043F0B64308BFA3F11D
:104228008053A3F50003BCFA8CF2083AA3EBC253FF
:1042380010DB01FA02FC634400FA02FCC2F120021E
:10424800BCF1004F20FA02F243EB020008BF20F055
:104258000100704702F1200201FA02FCC2F12002BB
:1042680050EA4C0021FA02F243EB020008BF20EAB0
:10427800DC7070474FF0FF0C1CEAD0521EBF1CEADE
:10428800D15392EA0C0F93EA0C0F6FD01A4480EACC
:10429800010C400218BF5FEA41211ED04FF00063B5
:1042A80043EA501043EA5111A0FB01310CF00040E1
:1042B800B1F5000F3EBF490041EAD3715B0040EA07
:1042C800010062F17F02FD2A1DD8B3F1004F40EBD7
:1042D800C25008BF20F00100704790F0000F0CF0AA
:1042E800004C08BF49024CEA502040EA51207F3A6E
:1042F800C2BFD2F1FF0340EAC250704740F4000049
:104308004FF00003013A5DDC12F1190FDCBF00F039
:1043180000407047C2F10002410021FA02F1C2F1E7
:10432800200200FA02FC5FEA310040F1000053EA83
:104338004C0308BF20EADC70704792F0000F00F0D1
:10434800004C02BF400010F4000F013AF9D040EAD7
:104358000C0093F0000F01F0004C02BF490011F46B
:10436800000F013BF9D041EA0C018FE70CEAD15369
:1043780092EA0C0F18BF93EA0C0F0AD030F0004CE9
:1043880018BF31F0004CD8D180EA010000F000409D
:10439800704790F0000F17BF90F0004F084691F05B
:1043A800000F91F0004F14D092EA0C0F01D1420295
:1043B8000FD193EA0C0F03D14B0218BF084608D15E
:1043C80080EA010000F0004040F0FE4040F40000A8
:1043D800704740F0FE4040F4400070474FF0FF0C3B
:1043E8001CEAD0521EBF1CEAD15392EA0C0F93EA82
:1043F8000C0F69D0A2EB030280EA010C49024FEAD4
:10440800402037D04FF0805343EA111143EA10138C
:104418000CF000408B4238BF5B0042F17D024FF444
:10442800000C8B4224BF5B1A40EA0C00B3EB510F1F
:1044380024BFA3EB510340EA5C00B3EB910F24BF08
:10444800A3EB910340EA9C00B3EBD10F24BFA3EB8D
:10445800D10340EADC001B0118BF5FEA1C1CE0D155
:10446800FD2A3FF650AF8B4240EBC25008BF20F008
:10447800010070470CF0004C4CEA50207F32C2BF5C
:10448800D2F1FF0340EAC250704740F400004FF0F9
:104498000003013A37E792F0000F00F0004C02BF2A
:1044A800400010F4000F013AF9D040EA0C0093F0F4
:1044B800000F01F0004C02BF490011F4000F013B4E
:1044C800F9D041EA0C0195E70CEAD15392EA0C0FB6
:1044D80008D142027FF47DAF93EA0C0F7FF470AFEE
:1044E800084676E793EA0C0F04D14B023FF44CAF31
:1044F80008466EE730F0004C18BF31F0004CCAD1C6
:1045080030F000427FF45CAF31F000437FF43CAF01
:104518005FE700BF4FF0FF3C06E000BF4FF0010C23
:1045280002E000BF4FF0010C4DF804CD4FEA400205
:104538004FEA41037FEA226C18BF7FEA236C11D04F
:1045480001B052EA530C18BF90EA010F58BFB2EB02
:10455800030088BFC81738BF6FEAE17018BF40F082
:10456800010070477FEA226C02D15FEA402C05D136
:104578007FEA236CE4D15FEA412CE1D05DF8040BBB
:10458800704700BF844608466146FFE70FB5FFF74E
:10459800C9FF002848BF10F1000F0FBD4DF808ED06
:1045A800FFF7F4FF0CBF012000205DF808FB00BFF7
:1045B8004DF808EDFFF7EAFF34BF012000205DF851
:1045C80008FB00BF4DF808EDFFF7E0FF94BF01209E
:1045D80000205DF808FB00BF4DF808EDFFF7D2FF9B
:1045E80094BF012000205DF808FB00BF4DF808EDDE
:1045F800FFF7C8FF34BF012000205DF808FB00BFAB
:104608004FEA4002B2F1FE4F0FD34FF09E03B3EBD7
:1046180012620DD94FEA002343F0004310F0004F17
:1046280023FA02F018BF404270474FF0000070476D
:1046380012F1610F01D1420205D110F0004008BF0C
:104648006FF0004070474FF000007047094B70B59D
:104658001C680646256C3DB91A20FDF789FA1A220E
:104668002064294600F043F9216C3046BDE87040CB
:1046780000F002B80005002010B50C46416986B06C
:1046880001F26C71036982690491016803EB4303C9
:104698000391416802EB4202029181680191C1686D
:1046A8002046009104490B4404490A440449FDF793
:1046B80077FA204606B010BD615808084C5808081B
:1046C800855808080A22002100F026BA10B5054CC2
:1046D80013462CB10A4601460220AFF3008010BDF4
:1046E800204610BD0000000038B5074B05461C6881
:1046F800E36B1BB92420FDF73BFAE063E16B284626
:10470800BDE8384000F002B8000500202DE9F0416E
:104718000C46804600F006FD21460746404600F05C
:1047280005FD4669044606F26C76B30705D1642296
:1047380096FBF2F302FB13634BB94FF4C87596FB73
:10474800F5F305FB1365B5FA85F35B0900E0012372
:104758005F4A302505FB032500F018FB00F018FB25
:104768005C4B1B68F3B17B689E4205D13968D8F869
:104778000030FA6941B90AE0304600F05FFA0028D3
:10478800F4D14FF0FF330DE0934208DB01E0934290
:1047980007DABA6B9342ACBF0023012302E000237F
:1047A80000E001232362236A3C20012B0CBFF96B34
:1047B800396A4FF4616391FBF3F603FB161393FB1D
:1047C800F0F200FB123061682368891AA2681B1A8C
:1047D800921B3B2B23606160A26003DD01316160A5
:1047E8003C3B04E0002B03DA013961603C33236071
:1047F80063683B2B03DD0132A2603C3B04E0002BE5
:1048080003DA013AA2603C336360A368172B22DD08
:10481800E269183B0132E261A269A3600132062A0B
:10482800C8BF0022A261E26823690132E26055F83C
:1048380023108A4246DD01330C2B08BF6369A2EBC3
:104848000102E26005BF013300222361226104BF37
:104858006361E26136E0002B34DAE2691833013A29
:10486800E261A269A360013A48BF0622A261E26838
:10487800013AE26032BB2369013B01D423611DE0A8
:104888000B23236163695A1E12F0030F626103F25E
:104898006B7305D1642193FBF1F201FB12324AB923
:1048A8004FF4C87193FBF1F201FB1233B3FA83F3AF
:1048B8005B0900E0012303F5B673E361236955F84A
:1048C8002330E36000F063FA2046BDE8F08100BFC2
:1048D800085A0808940C002010B5431E0A44914257
:1048E80004D011F8014B03F8014FF8E710BD034657
:1048F8000244934202D003F8011BFAE77047000014
:1049080038B5124B05461C68A36BD3B91820FDF7C0
:104918002FF943F20E33A06303804AF6CD33438068
:1049280041F2342383804EF26D63C3804DF6EC630D
:104938000381052343810B23838101220023C0E9DE
:104948000423A36B00221D615A6138BD00050020B5
:1049580010F8012B11F8013B012A28BF9A42F7D021
:10496800D01A7047034611F8012B03F8012B002ACF
:10497800F9D17047024B0146186800F003B800BF30
:104988000005002070B5064608460C4600F00DF8F4
:10499800451C29463046FDF723F9064618B12A4634
:1049A8002146FFF799FF304670BD034613F8012BE7
:1049B800002AFBD1181A0138704730B582B1451E5C
:1049C800013915F8013F11F8014FA34206D1EC4314
:1049D8001444E04201D0002BF3D11C46181B30BD13
:1049E800104630BD034610B542B111F8014B013AEB
:1049F80003F8014B002CF7D11A4400E010BD934294
:104A080002D003F8014BFAE710BD00002DE9F0478A
:104A18000F4680463F48D0F800903D4615F8014BB8
:104A280009EB0400407800F0080000F0FF0608B128
:104A38002F46F2E72D2C03D1BD1C7C78012603E01C
:104A48002B2C04BF7C78BD1C13B1102B0AD15BE062
:104A5800302C57D1287800F0DF0058284DD16C78D9
:104A680010230235002E14BF4FF0004C6FF0004C9D
:104A7800BCFBF3FA0027384603FB1ACC09EB040EFB
:104A88009EF801E01EF0040F01D0303C0BE01EF050
:104A9800030E1BD0BEF1010F0CBF4FF0370E4FF0C5
:104AA800570ECEEB0404A34210DDB7F1FF3F0AD046
:104AB800504506D801D1644503DC03FB00400127BB
:104AC80001E04FF0FF3715F8014BD7E77B1C0CD1FD
:104AD800002E4FF0220314BF4FF000406FF000404B
:104AE800C8F800302AB9BDE8F08706B1404272B173
:104AF80007B1691E1160BDE8F0873024002BB1D1E1
:104B08000823AFE70A23ADE7302CA3D0AAE7BDE816
:104B1800F08700BF9C04002013460A46014602485D
:104B28000068FFF773BF00BF000500202DE9F047BC
:104B38000E4680463B48D0F80090354615F8014BA4
:104B480009EB0400407800F0080000F0FF0708B106
:104B58002E46F2E72D2C03D1B51C7478012703E00B
:104B68002B2C04BF7478B51C13B1102B0AD153E059
:104B7800302C4FD1287800F0DF00582845D16C78C8
:104B8800102302354FF0FF3CBCFBF3FC03FB0CFA8F
:104B980000266FEA0A0A304609EB040E9EF801E087
:104BA8001EF0040F01D0303C0BE01EF0030E1AD0AB
:104BB800BEF1010F0CBF4FF0370E4FF0570ECEEB82
:104BC8000404A3420FDD002E08DB604506D801D19E
:104BD800544503DC03FB0040012601E04FF0FF369B
:104BE80015F8014BD8E7002E07DA2223C8F8003061
:104BF8004FF0FF302AB9BDE8F08707B1404272B1E3
:104C080006B1691E1160BDE8F0873024002BB9D1C8
:104C18000823B7E70A23B5E7302CABD0B2E7BDE8E5
:104C2800F08700BF9C04002013460A46014602484C
:104C38000068FFF77BBF00BF000500202DE9F74F94
:104C4800044600F06FFA40F2B1739C4240F396803C
:104C580040F26D156FF4F663E318A4F2B2729B107C
:104C680005FB0235A4F26D726FF0630392FBF3F358
:104C78006FF4C8622B44A5184FF4C87294FBF2F77E
:104C880095FBF2F502FB17471D44642394FBF3F6EA
:104C9800B7FA87FE014603FB164600F13803019375
:104CA80004F0030344604FEA5E1E00934FF0070CC4
:104CB8000B7A4A2B0ED14B69009AEC1802B906B947
:104CC80027B93B2BD4BF0023012300E00023234452
:104CD800013B3FE0442B02D14B692B443AE0009B57
:104CE8002BB9002E0CBFF0464FF0010800E0F0464B
:104CF800A946244B302202FB0838CC68A8F1040AE4
:104D08000123A34204DA5AF804BF0133D944F8E76F
:104D180009F1040393FBFCFBCBEBCB0ACAEB030AB8
:104D28004B69012CB8BF0124B3EB0A0A0B6904F1E3
:104D3800804403F1FF3304F1FF3448BF0AF1070A46
:104D4800C3EBC30358F824405344A34201DB073B99
:104D5800FBE74B448C690C4A02FB03430C6A23446F
:104D680041F81C3F019B9942A2D1C369826B9342CF
:104D7800ACBF002301230360012000E0002003B042
:104D8800BDE8F08F085A0808805101007047704745
:104D9800014B186800F002B8000500202DE9F04F1B
:104DA8008DB0074600F0BEF9B0490446384600F019
:104DB800B1F9AF4E054660B9AE4BAF4A1860AF4B7C
:104DC8001860AF4B30681A605A60FCF7D9FE35603E
:104DD80048E1316879B93068FCF7D2FE2846FFF718
:104DE800E4FD411C3846FCF7FBFE306048B129461B
:104DF800FFF7B8FD05E0FFF7ABFD002800F03281B2
:104E0800E9E72B780AAE3A2B08BF013533469D4AAD
:104E18009D492846FCF7CCFE002840F323810A9BD5
:104E2800EF18EB5C2D2B03D101374FF0FF3503E072
:104E38002B2B08BF013701250DF1200A0DF11E0BA0
:104E48004FF000080396CDF808A00196CDF800B001
:104E5800334607AA8D493846ADF81E80ADF8208044
:104E6800FCF7A6FE404540F3FD80BDF81E20BDF8C6
:104E780020303C2101FB0233BDF81C204FF4616156
:104E880001FB02335D437F4B25627D4DDFF80892BD
:104E98002B600A9B4A461F447B4933463846FCF739
:104EA80087FE404508DC2B68226A6B60714B1A60EC
:104EB800724BC3F80080D5E00A9BC5F80490FD1832
:104EC800FB5C2D2B03D101354FF0FF3703E02B2B73
:104ED80008BF013501270023ADF81C30ADF81E309E
:104EE800ADF820300A930396CDF808A00196CDF8C6
:104EF80000B0334607AA65492846FCF759FE002842
:104F080004DC236AA3F56163E3630EE0BDF81E20A9
:104F1800BDF820303C2101FB0233BDF81C204FF4C2
:104F2800616101FB02335F43E76327460A9B4FF049
:104F380000091D442B782C2B08BF013595F80080FB
:104F4800B8F14D0F26D10DF12603029309AB00935A
:104F58000396019633460DF122024D492846FCF787
:104F680027FE03287ED1BDF822104B1E0B2B79D8C3
:104F7800BDF82420531E042B74D8BDF82630062B08
:104F880070D887F80880F9603A617B610A9B05EB65
:104F980003082AE0B8F14A0F06BF43460135442307
:104FA8000A220BA928460593FFF73EFEDDF82C8060
:104FB800ADF826004545059B14D14D23B9F1000FE6
:104FC80007D123720323E36002232361C4F81490FA
:104FD8000BE084F824300B23A3620123E36200234F
:104FE800236302E080B23B7278610223ADF81C3083
:104FF8000023ADF81E30ADF820300A9398F8003041
:105008002F2B0BD10396CDF808A00196CDF800B050
:10501800334607AA1F494046FCF7CAFDBDF81E20C3
:10502800BDF820303C2101FB0233BDF81C204FF4B1
:10503800616101FB0233BB610A9D09F10109B9F104
:10504800020F454407F11C077FF474AF6068FFF74F
:10505800F5FD226A074B1A60E36B9B1A074A18BFD3
:10506800012313600DB0BDE8F08F00BF685A08082F
:10507800900C0020980C00206B5A0808940C002013
:1050880004050020830C00206F5A0808925A08086B
:105098007E5A0808915A0808780C00202DE9F84F24
:1050A80007468B46904600F0D7F8194B1D689A467C
:1050B8003DB15C46234613F8012B42B13D2A1C46FC
:1050C800F8D1384600F0C9F80020BDE8F88FCBEBDE
:1050D8000404A94659F8040B0028F2D02246594680
:1050E800FFF76BFC88B959F8043C1E191B5D3D2B72
:1050F8000BD1DAF800303846ED1AAD10C8F8005078
:1051080000F0ABF8701CBDE8F88F4D46E1E700BF32
:105118004C05002007B501AAFFF7C0FF03B05DF8F2
:1051280004FB0000004870470C0500200268464B4D
:10513800F0B592FBF3F403FB1422002ABCBF02F57E
:10514800A83202F5C0724FF4616092FBF0F300FBE5
:1051580013224FF03C008B6092FBF0F300FB13220C
:1051680004F52F24ACBF04F66C2404F66B244B60C2
:105178000A600723E21C92FBF3F3344DC3EBC3032D
:1051880094FBF5F5D31A48F6AC6240F2B4578B613C
:105198002F4B304803FB0544B4FBF2F2B4FBF7F3A2
:1051A800B4FBF0F02244D21A48F69466131A40F27F
:1051B8006D12B3FBF6F6B3FBF2F0B3FBF7F334442E
:1051C800E31A02FB103303EB830299240232B2FB89
:1051D800F4F25443A61C0524B6FBF4F40A2A34BF9F
:1051E80002266FF0090616444FF4C87202FB050543
:1051F8005F1C012E98BF0135B3F5997FA7EB040713
:1052080002D3A3F5997214E0820705D16424B0FB98
:10521800F4F204FB12024AB94FF4C872B0FBF2F47C
:1052280002FB1400B0FA80F2520900E001223B337D
:105238001A44A5F26C750023CA614D610E61CF60F6
:105248000B620846F0BD00BF80510100B13A020070
:105258004FC5FDFFB03A0200704770471D000808AF
:105268005D000808890008088D0008080000000093
:1052780053746172747570205375636365737366D4
:10528800756C000000000000000000000000000035
:105298000000000000000000000000000000000006
:1052A80000000000000000000000000000000000F6
:1052B800257320533A25322E306625252C20513A65
:1052C80025322E30662525200025332E31662044D0
:1052D80065677265657320430025692025250041AF
:1052E800542B4346554E3D31360D0A007B225465FA
:1052F8006D7065726174757265223A25342E316657
:105308002C202248756D6964697479223A25342EF7
:1053180031662C2022536F696C636F6E64756374F9
:105328006976697479223A25342E31662C20225305
:105338006F696C74656D70223A25342E31662C20A5
:1053480022536F696C6D6F697374757265223A25A3
:10535800342E31662C202242617474657279223AA7
:1053680025692C2022526573657473223A25692CAD
:105378002022416C65727473223A25697D00436569
:105388006C6C756C61725F536F696C5F486F6F6BA3
:10539800004E6F204461746100556269646F7473D4
:1053A80020486F6F6B00526573706F6E7365205283
:1053B8006563656976656400537461746500536557
:1053C8007420536F6C617220506F7765726564202A
:1053D8004D6F646500436C656172656420536F6C42
:1053E800617220506F7765726564204D6F64650047
:1053F80053657420566572626F7365204D6F6465DE
:1054080000436C656172656420566572626F7365EE
:10541800204D6F64650054696D65207A6F6E652054
:105428006F66667365742025690054696D65004C64
:105438006F7720506F776572004E6F726D616C20C8
:105448004F7065726174696F6E730046726F6D207C
:10545800257320746F20257300537461746520547C
:1054680072616E736974696F6E004572726F722033
:1054780074616B696E67204D6561737572656D65E2
:105488006E747300737061726B2F646576696365FF
:105498002F73657373696F6E2F656E6400476F694C
:1054A8006E6720746F20536C656570004C6F7720B1
:1054B80042617474657279202D20536C656570693A
:1054C8006E67004572726F72205374617465202D87
:1054D800205265736574004572726F72205374614F
:1054E8007465202D20506F776572204379636C6551
:1054F800004572726F72205374617465202D2046C6
:10550800756C6C204D6F64656D2052657365740011
:105518005369676E616C005265736574436F756E8D
:10552800740052656C656173650073746174654FCE
:1055380066436867006C6F77506F7765724D6F646C
:10554800650074656D7065726174757265004D658E
:1055580061737572652D4E6F77004C6F77506F775A
:1055680065724D6F646500536F6C61722D4D6F6489
:105578006500566572626F73652D4D6F64650053E3
:10558800657454696D655A6F6E65004661696C652E
:105598006420746F20636F6E6E656374005374616A
:1055A8007274757000556E6B6E6F776E004E6F6E0D
:1055B8006500576946690047534D00554D545300DF
:1055C80043444D41004C5445004945454538303227
:1055D80031353400312E300000000000000000009A
:1055E800C71C0808BD1C0808B31C0808251C0808A7
:1055F800A71C08089B1C08088F1C0808871C08089B
:105608007D1C0808731C08082F1C080800000000EF
:1056180000000000851D0808071E0808871D0808E7
:10562800451E08088D1D0808151E0808B11D080824
:10563800D51D0808FCFFFFFF00000000FF1D08083B
:1056480000000000000000008D1E0808931E0808D6
:10565800BB1E08089F1E08088F1E080800000000CF
:10566800000000000D250808572508082F25080800
:105678000F250808372508083F2508084725080882
:105688004F25080800000000000000005F260808F9
:10569800512608085326080866006C6E00666E00DE
:1056A800636F64650064657461696C00253031302E
:1056B8007520005D20002564002C200028293A2050
:1056C80000205B00636F6465203D200064657461A1
:1056D800696C73203D2000626175640053657269CE
:1056E800616C0055534253657269616C310074797D
:1056F800706500706172616D00636D6400696400BB
:10570800686E64007374726D0066696C74006C7600
:105718006C0061646448616E646C65720072656DEA
:105728006F766548616E646C657200656E756D486C
:10573800616E646C657273004A534F4E53747265A0
:10574800616D4C6F6748616E646C65720061707062
:10575800006E6F6E6500747261636500696E666FD6
:10576800007761726E006572726F720070616E69A7
:105778006300616C6C000000000000000000000085
:10578800FD26080807270808112708081B27080806
:1057980025270808312708083D2708084927080849
:1057A800512708085B27080865270808000000003B
:1057B80000000000952C0808972C0808252B30338A
:1057C800643A253032750025592D256D2D256454F0
:1057D80025483A254D3A2553257A00617363746943
:1057E8006D6500000000000000000000053008089A
:1057F80029300808353008084D2B080811300808EA
:105808001D30080817300808233008080730080832
:105818000B3008080000000000000000DD30080818
:1058280021310808FB3008084D2B0808F530080816
:10583800DF300808E73008081B310808EF3008088F
:10584800D930080853756E4D6F6E54756557656489
:105858005468754672695361744A616E4665624D53
:1058680061724170724D61794A756E4A756C417505
:10587800675365704F63744E6F76446563252E33A6
:105888007320252E337325336420252E32643A2560
:105898002E32643A252E32642025640A0000202026
:1058A80020202020202020282828282820202020C8
:1058B8002020202020202020202020202020881088
:1058C80010101010101010101010101010100404E8
:1058D80004040404040404041010101010101041EF
:1058E8004141414141010101010101010101010160
:1058F80001010101010101010110101010101042F5
:10590800424242424202020202020202020202022F
:10591800020202020202020202101010102000000D
:10592800000000000000000000000000000000006F
:10593800000000000000000000000000000000005F
:10594800000000000000000000000000000000004F
:10595800000000000000000000000000000000003F
:10596800000000000000000000000000000000002F
:10597800000000000000000000000000000000001F
:10598800000000000000000000000000000000000F
:1059980000000000000000000000000000000000FF
:1059A80000000000000000000000000000000000EF
:1059B80000000000000000000000000000000000DF
:1059C80000000000000000000000000000000000CF
:1059D80000000000000000000000000000000000BF
:1059E80000000000000000000000000000000000AF
:1059F800000000000000000000000000000000009F
:105A08001F0000001C0000001F0000001E00000016
:105A18001F0000001E0000001F0000001F00000003
:105A28001E0000001F0000001E0000001F000000F4
:105A38001F0000001D0000001F0000001E000000E5
:105A48001F0000001E0000001F0000001F000000D3
:105A58001E0000001F0000001E0000001F000000C4
:105A6800545A00474D54002531305B5E302D392C97
:105A78002B2D5D256E004D256875256E2E256875C4
:105A8800256E2E256875256E002F256875256E3ABA
:105A9800256875256E3A256875256E00DD0F08089E
:105AA800D3120808FB150808451D0808ED26080844
:105AB800B1270808792C0808512E0808F12F080882
:105AC80001350808313508089D3508086136080889
